:100000000C942A000C9447000C9447000C94470071
:100010000C947A170C9447170C9447000C94E11633
:100020000C9414170C94AE160C947B160C94481672
:100030000C9447000C9447000C9447000C94470024
:100040000C9447000C9447000C9447000C94470014
:100050000C94470011241FBECFE5D8E0DEBFCDBF12
:1000600011E0A0E6B0E0E8EFF6E302C005900D92E3
:10007000A035B107D9F711E0A0E5B1E001C01D92AC
:10008000AA35B107E1F70E94A3050C947A1B0C94E2
:100090000000EF92FF920F931F937B018C0120E0F1
:1000A00030E040E05FE40E94490388238CF0C801FF
:1000B000B70120E030E040E05FE40E94C1010E940F
:1000C000A9039B01AC01205030404040504806C07D
:1000D000C801B7010E94A9039B01AC01B901CA0183
:1000E0001F910F91FF90EF900895A0E0B0E0EBE733
:1000F000F0E00C94FE1ADC012B01FA019C91923085
:1001000008F439C1EB018881823008F433C194309E
:1001100069F4843009F02FC111969C91119789815F
:10012000981709F428C1A6E4B1E025C1843009F488
:1001300021C18230A9F4923009F01DC19A01AD01AC
:1001400088E0EA010990AE01E90109929E0181501F
:10015000C1F7E201898111969C918923818308C1AD
:10016000923009F407C112962D903C901397EB0141
:100170008A819B811496AD90BD90CD90DC901797AD
:10018000EC80FD800E811F819101281B390BB90184
:1001900037FF04C066277727621B730B6032710537
:1001A0000CF061C0121613066CF537014801062EDB
:1001B00004C096948794779467940A94D2F721E0C8
:1001C00030E040E050E004C0220F331F441F551FB1
:1001D0006A95D2F721503040404050402E213F21B7
:1001E00040235123211531054105510521F021E01E
:1001F00030E040E050E079018A01E628F72808293C
:1002000019293CC0232BD1F1260E371E350146019A
:10021000062E04C096948794779467940A94D2F734
:1002200021E030E040E050E004C0220F331F441FC3
:10023000551F6A95D2F721503040404050402A2146
:100240003B214C215D21211531054105510521F04E
:1002500021E030E040E050E059016A01A628B728CB
:10026000C828D9280BC0821593052CF01C01AA249C
:10027000BB24650103C0EE24FF24870111969C91E5
:10028000D20111968C91981709F445C0992339F041
:10029000A80197012A193B094C095D0906C0A6016E
:1002A00095012E193F09400B510B57FD08C01182D3
:1002B0003382228224833583468357831DC081E0A5
:1002C00081833382228288279927DC01821B930B4A
:1002D000A40BB50B84839583A683B7830DC0220F2F
:1002E000331F441F551F24833583468357838281E0
:1002F000938101979383828324813581468157813D
:10030000DA01C9010197A109B1098F5F9F4FAF4F72
:10031000BF4328F30BC0918333822282EA0CFB1C7B
:100320000C1D1D1DE482F5820683178383E0808304
:10033000248135814681578157FF1AC0C901AA27F8
:1003400097FDA095BA2F81709070A070B0705695EF
:10035000479537952795822B932BA42BB52B848318
:100360009583A683B7838281938101969383828349
:10037000DF0101C0D201CD01CDB7DEB7E2E10C94BF
:100380001A1BA0E2B0E0E7ECF1E00C940A1B6983D1
:100390007A838B839C832D833E834F835887E9E048
:1003A000EE2EF12CEC0EFD1ECE010196B7010E943F
:1003B000D2048E010F5E1F4FCE010596B8010E9438
:1003C000D2048A8991E089278A8BC701B801AE01DE
:1003D000475E5F4F0E9475000E94FD03A096E6E015
:1003E0000C94261BA0E2B0E0E8EFF1E00C940A1BAD
:1003F00069837A838B839C832D833E834F835887C5
:10040000F9E0EF2EF12CEC0EFD1ECE010196B701A6
:100410000E94D2048E010F5E1F4FCE010596B801D7
:100420000E94D204C701B801AE01475E5F4F0E942F
:1004300075000E94FD03A096E6E00C94261BA0E246
:10044000B0E0E5E2F2E00C94FE1A69837A838B83D4
:100450009C832D833E834F835887CE010196BE0136
:10046000675F7F4F0E94D204CE010596BE016F5E8A
:100470007F4F0E94D2049985923088F0898982301A
:10048000C8F0943019F4823051F404C0843029F457
:10049000923081F486E491E0C6C0923049F420E0C5
:1004A0009A858A89981321E02A87CE010996BBC0D4
:1004B000823049F420E09A858A89981321E02A8BBA
:1004C000CE014196B0C02D843E844F8458886D88FB
:1004D0007E888F88988CEE24FF248701AA24BB2471
:1004E000650140E050E060E070E0E0E0F0E0C10174
:1004F00081709070892BE9F0E60CF71C081D191D1E
:100500009A01AB012A0D3B1D4C1D5D1D80E090E062
:10051000A0E0B0E0E614F7040805190520F481E036
:1005200090E0A0E0B0E0BA01A901480F591F6A1F8E
:100530007B1FAA0CBB1CCC1CDD1C97FE08C081E0F5
:1005400090E0A0E0B0E0A82AB92ACA2ADB2A3196B6
:10055000E032F10549F0660C771C881C991C569412
:10056000479437942794C3CFFA85EA892B893C892D
:100570008B859C85280F391F2E5F3F4F17C0CA01FE
:1005800081709070892B61F016950795F794E79428
:1005900080E090E0A0E0B0E8E82AF92A0A2B1B2BC3
:1005A00076956795579547952F5F3F4F77FDE7CF36
:1005B0000CC0440F551F661F771F17FD4160EE0CDE
:1005C000FF1C001F111F21503040403090E05907A0
:1005D00090E0690790E4790760F32B8F3C8FDB0193
:1005E000CA018F779070A070B07080349105A1051A
:1005F000B10561F447FD0AC0E114F10401051105DC
:1006000029F0405C5F4F6F4F7F4F40781A8EFE1786
:1006100011F081E08A8F4D8F5E8F6F8F78A383E01A
:10062000898FCE0149960E94FD03A096E2E10C94C9
:100630001A1BA8E1B0E0EFE1F3E00C940A1B698318
:100640007A838B839C832D833E834F83588789E0F5
:10065000E82EF12CEC0EFD1ECE010196B7010E9492
:10066000D2048E010F5E1F4FCE010596B8010E9485
:10067000D2048985823040F08989823028F0C70110
:10068000B8010E944A0501C08FEF6896E6E00C941D
:10069000261BA8E1B0E0EFE4F3E00C940A1B6983A9
:1006A0007A838B839C832D833E834F83588789E095
:1006B000E82EF12CEC0EFD1ECE010196B7010E9432
:1006C000D2048E010F5E1F4FCE010596B8010E9425
:1006D000D2048985823040F08989823028F0C701B0
:1006E000B8010E944A0501C08FEF6896E6E00C94BD
:1006F000261BA8E1B0E0EFE7F3E00C940A1B698346
:100700007A838B839C832D833E834F83588789E034
:10071000E82EF12CEC0EFD1ECE010196B7010E94D1
:10072000D2048E010F5E1F4FCE010596B8010E94C4
:10073000D2048985823040F08989823028F0C7014F
:10074000B8010E944A0501C081E06896E6E00C9479
:10075000261BACE0B0E0EFEAF3E00C940E1B6983DB
:100760007A838B839C83CE010196BE016B5F7F4FA2
:100770000E94D2048D81823061F1823050F1843048
:1007800021F48E81882351F12EC02F81388537FDC9
:1007900020C06E812F3131051CF06623F9F023C093
:1007A0008EE190E0821B930B29853A854B855C8511
:1007B00004C056954795379527958A95D2F76623B5
:1007C000B1F050954095309521953F4F4F4F5F4F79
:1007D0000EC020E030E040E050E009C02FEF3FEFD6
:1007E0004FEF5FE704C020E030E040E050E8B9019F
:1007F000CA012C96E2E00C942A1BDF92EF92FF9242
:100800000F931F93FC01E480F58006811781D1804E
:100810008081823048F480E090E0A0E1B0E0E82AF6
:10082000F92A0A2B1B2BA5C0843009F49FC0823003
:1008300021F4EE24FF24870105C0E114F104010531
:10084000110519F4E0E0F0E096C0628173819FEF3A
:10085000623879070CF05BC022E83FEF261B370BAC
:100860002A3131052CF020E030E040E050E02AC091
:10087000B801A701022E04C0769567955795479554
:100880000A94D2F781E090E0A0E0B0E004C0880FC5
:10089000991FAA1FBB1F2A95D2F70197A109B10979
:1008A0008E219F21A023B1230097A105B10521F03E
:1008B00081E090E0A0E0B0E09A01AB01282B392B59
:1008C0004A2B5B2BDA01C9018F779070A070B07052
:1008D00080349105A105B10539F427FF09C0205CDA
:1008E0003F4F4F4F5F4F04C0215C3F4F4F4F5F4F13
:1008F000E0E0F0E02030A0E03A07A0E04A07A0E402
:100900005A0710F0E1E0F0E079018A0127C0603871
:10091000710564F5FB01E158FF4FD801C7018F77DE
:100920009070A070B07080349105A105B10539F4C4
:10093000E7FE0DC080E490E0A0E0B0E004C08FE3EB
:1009400090E0A0E0B0E0E80EF91E0A1F1B1F17FFA1
:1009500005C016950795F794E794319687E01695AC
:100960000795F794E7948A95D1F705C0EE24FF2404
:100970008701EFEFF0E06E2F679566276795902F60
:100980009F77D794DD24D7948E2F8695492F462BB9
:10099000582F5D29B701CA011F910F91FF90EF9069
:1009A000DF900895FC01DB01408151812281622F9B
:1009B0006F7770E0221F2227221F9381892F880FD3
:1009C000822B282F30E0991F9927991F11969C930D
:1009D000119721153105A9F54115510561057105DD
:1009E00011F482E037C082E89FEF13969C938E93B8
:1009F00012979A01AB0167E0220F331F441F551F66
:100A00006A95D1F783E08C930DC0220F331F441FEA
:100A1000551F12968D919C911397019713969C9355
:100A20008E931297203080E0380780E0480780E4FA
:100A3000580758F314962D933D934D935C93179755
:100A400008952F3F310579F4411551056105710570
:100A500019F484E08C93089564FF03C081E08C93C3
:100A600012C01C9210C02F57304013963C932E9307
:100A7000129783E08C9387E0440F551F661F771F02
:100A80008A95D1F7706414964D935D936D937C9322
:100A9000179708951F93DC01FB019C91923008F495
:100AA00047C08081823008F443C0943051F41196DD
:100AB0001C91843099F58181682F70E0611B710968
:100AC0003FC0843021F0923031F48230B9F181811D
:100AD000882389F12DC011961C9111978230F1F075
:100AE00081811817D9F412962D913C911397828128
:100AF00093818217930794F028173907BCF0149656
:100B00008D919D910D90BC91A02D248135814681C0
:100B10005781281739074A075B0718F4112341F05A
:100B20000AC082179307A407B50740F4112319F0F0
:100B300061E070E005C06FEF7FEF02C060E070E041
:100B4000CB011F910895DF93CF93CDB7DEB76097A8
:100B50000FB6F894DEBF0FBECDBF0E94991182EE92
:100B600094EE9D838C831B821A8285E0888782E0C5
:100B70008F8381E08E8380E895E2A0E0B0E08A87F1
:100B80009B87AC87BD8783E08E871F86188ACE013E
:100B90000A960E94B41981E10E944A1A0E94611AC1
:100BA0008031E1F71982AFE5B0E0EFE5F0E0808158
:100BB00080688C9380915301882389F40CC00E9433
:100BC00005060E9426070E94611A80934E018091BB
:100BD0004E010E94D50780914E01833181F381E05F
:100BE000809353010E94F308898389818D3229F40F
:100BF000CE0102960E94430ADDCF89818B32D1F665
:100C0000CE0102960E94140CD5CFDF93CF93CDB7BF
:100C1000DEB76D970FB6F894DEBF0FBECDBF20E6EE
:100C200030E080E060E0A9010E94021622E730E097
:100C300081E060E0A9010E94021681E060E00E946C
:100C4000C0151D8E80E090E0A6E9B3E4898F9A8FED
:100C5000AB8FBC8F698D7A8D8B8D9C8D20E030E0C1
:100C60004AEF54E40E941F02DC01CB018D8B9E8B66
:100C7000AF8BB88F6D897E898F89988D20E030E0A9
:100C800040E85FE30E94790388232CF481E090E040
:100C90009C8B8B8B3FC06D897E898F89988D20E0DE
:100CA0003FEF4FE757E40E94190318164CF5698D82
:100CB0007A8D8B8D9C8D20E030E040E251E40E94E3
:100CC0001F02DC01CB01BC01CD010E944900DC0107
:100CD000CB019C8B8B8B0FC088EC90E09A8B898B1F
:100CE00089899A890197F1F79A8B898B8B899C89DD
:100CF00001979C8B8B8B8B899C89009769F799C096
:100D00006D897E898F89988D0E944900DC01CB0115
:100D10009C8B8B8B8B899C89988B8F878F859889EF
:100D20000197F1F7988B8F8784C00E94A1108D8F57
:100D30008D8D8A3018F08D8D8D3319F48D8D0E9434
:100D40004A1A8D8D8D3319F08AE20E94B01380E02B
:100D500090E0AAE7B3E48B879C87AD87BE876B855D
:100D60007C858D859E8520E030E04AEF54E40E942A
:100D70001F02DC01CB018F839887A987BA876F8117
:100D8000788589859A8520E030E040E85FE30E941D
:100D9000790388232CF481E090E09E838D833FC00B
:100DA0006F81788589859A8520E03FEF4FE757E48A
:100DB0000E94190318164CF56B857C858D859E85E0
:100DC00020E030E040E251E40E941F02DC01CB0150
:100DD000BC01CD010E944900DC01CB019E838D83C3
:100DE0000FC088EC90E09C838B838B819C81019762
:100DF000F1F79C838B838D819E8101979E838D83E8
:100E00008D819E81009769F714C06F8178858985EF
:100E10009A850E944900DC01CB019E838D838D81E0
:100E20009E819A83898389819A810197F1F79A83B8
:100E300089838D8D8D3309F078CF6D960FB6F89438
:100E4000DEBF0FBECDBFCF91DF910895DF93CF936B
:100E5000CDB7DEB72F970FB6F894DEBF0FBECDBF6C
:100E60001F8623E830E080E060E0A9010E940216BE
:100E700022E730E081E060E0A9010E94021681E0F3
:100E800060E00E94C01584C00E94A1108F878F85EA
:100E90008A3018F08F858D3319F48F850E944A1A95
:100EA0008F858D3319F08AE20E94B01380E090E0C4
:100EB000AAE7B3E48B879C87AD87BE876B857C856B
:100EC0008D859E8520E030E04AEF54E40E941F02A9
:100ED000DC01CB018F839887A987BA876F817885DA
:100EE00089859A8520E030E040E85FE30E9479033D
:100EF00088232CF481E090E09E838D833FC06F8136
:100F0000788589859A8520E03FEF4FE757E40E9476
:100F1000190318164CF56B857C858D859E8520E020
:100F200030E040E251E40E941F02DC01CB01BC0131
:100F3000CD010E944900DC01CB019E838D830FC04F
:100F400088EC90E09C838B838B819C810197F1F7E7
:100F50009C838B838D819E8101979E838D838D8160
:100F60009E81009769F714C06F81788589859A857D
:100F70000E944900DC01CB019E838D838D819E817F
:100F80009A83898389819A810197F1F79A8389836A
:100F90008F858D3309F078CF2F960FB6F894DEBF8A
:100FA0000FBECDBFCF91DF910895DF93CF93CDB723
:100FB000DEB76E970FB6F894DEBF0FBECDBF8D8F34
:100FC0008D8D833109F07BC00E943E1684E990E04C
:100FD0000E94A41580E090E0AAE7B4E4898F9A8F7C
:100FE000AB8FBC8F698D7A8D8B8D9C8D20E030E02E
:100FF0004AEF54E40E941F02DC01CB018D8B9E8BD3
:10100000AF8BB88F6D897E898F89988D20E030E015
:1010100040E85FE30E94790388232CF481E090E0AC
:101020009C8B8B8B3FC06D897E898F89988D20E04A
:101030003FEF4FE757E40E94190318164CF5698DEE
:101040007A8D8B8D9C8D20E030E040E251E40E944F
:101050001F02DC01CB01BC01CD010E944900DC0173
:10106000CB019C8B8B8B0FC088EC90E09A8B898B8B
:1010700089899A890197F1F79A8B898B8B899C8949
:1010800001979C8B8B8B8B899C89009769F714C087
:101090006D897E898F89988D0E944900DC01CB0182
:1010A0009C8B8B8B8B899C89988B8F878F8598895C
:1010B0000197F1F7988B8F8783E18E8F8AC08D8D92
:1010C000823109F084C00E943E1680EA90E00E94BE
:1010D000A4152DEA30E081E060E0A9010E9402162B
:1010E00080E090E0AAE7B4E48B879C87AD87BE8759
:1010F0006B857C858D859E8520E030E04AEF54E449
:101100000E941F02DC01CB018F839887A987BA87D1
:101110006F81788589859A8520E030E040E85FE33B
:101120000E94790388232CF481E090E09E838D83D4
:101130003FC06F81788589859A8520E03FEF4FE732
:1011400057E40E94190318164CF56B857C858D8534
:101150009E8520E030E040E251E40E941F02DC0165
:10116000CB01BC01CD010E944900DC01CB019E8373
:101170008D830FC088EC90E09C838B838B819C8156
:101180000197F1F79C838B838D819E8101979E83CC
:101190008D838D819E81009769F714C06F8178855A
:1011A00089859A850E944900DC01CB019E838D834D
:1011B0008D819E819A83898389819A810197F1F734
:1011C0009A8389830E943E1682E18E8F02C083E15A
:1011D0008E8F8E8D6E960FB6F894DEBF0FBECDBF8C
:1011E000CF91DF910895DF93CF9300D0CDB7DEB7D5
:1011F00019820E943E1689EB90E00E94A4152AEC09
:1012000030E081E060E0A9010E9402160FC00E9458
:10121000A110898389818B3219F089818D3231F453
:1012200089810E944A1A89818A8308C089818B3208
:1012300071F789818D3259F789818A838A810F906C
:101240000F90CF91DF910895DF93CF93CDB7DEB7A5
:101250006D970FB6F894DEBF0FBECDBF1D8E0E94F6
:101260003E168BED90E00E94A41580E090E0AAEF7E
:10127000B3E4898F9A8FAB8FBC8F698D7A8D8B8DFC
:101280009C8D20E030E04AEF54E40E941F02DC0114
:10129000CB018D8B9E8BAF8BB88F6D897E898F89AB
:1012A000988D20E030E040E85FE30E9479038823D6
:1012B0002CF481E090E09C8B8B8B3FC06D897E8904
:1012C0008F89988D20E03FEF4FE757E40E94190384
:1012D00018164CF5698D7A8D8B8D9C8D20E030E051
:1012E00040E251E40E941F02DC01CB01BC01CD01B0
:1012F0000E944900DC01CB019C8B8B8B0FC088ECDA
:1013000090E09A8B898B89899A890197F1F79A8B5A
:10131000898B8B899C8901979C8B8B8B8B899C8972
:10132000009769F714C06D897E898F89988D0E9416
:101330004900DC01CB019C8B8B8B8B899C89988B22
:101340008F878F8598890197F1F7988B8F8781E038
:1013500060E00E94C01584C00E94A1108D8F8D8D09
:101360008A3018F08D8D8D3319F48D8D0E944A1AB4
:101370008D8D8D3319F08AE20E94B01380E090E0E9
:10138000AAE7B3E48B879C87AD87BE876B857C8596
:101390008D859E8520E030E04AEF54E40E941F02D4
:1013A000DC01CB018F839887A987BA876F81788505
:1013B00089859A8520E030E040E85FE30E94790368
:1013C00088232CF481E090E09E838D833FC06F8161
:1013D000788589859A8520E03FEF4FE757E40E94A2
:1013E000190318164CF56B857C858D859E8520E04C
:1013F00030E040E251E40E941F02DC01CB01BC015D
:10140000CD010E944900DC01CB019E838D830FC07A
:1014100088EC90E09C838B838B819C810197F1F712
:101420009C838B838D819E8101979E838D838D818B
:101430009E81009769F714C06F81788589859A85A8
:101440000E944900DC01CB019E838D838D819E81AA
:101450009A83898389819A810197F1F79A83898395
:101460008D8D8D3309F078CF8D8D8D3319F48D8D61
:101470000E944A1A6D960FB6F894DEBF0FBECDBF1C
:10148000CF91DF910895DF93CF93CDB7DEB76E97FD
:101490000FB6F894DEBF0FBECDBF9E8F8D8F81E15A
:1014A0000E944A1A83E180934E014AC10E94240996
:1014B00080E090E0A6E9B3E4898F9A8FAB8FBC8F70
:1014C000698D7A8D8B8D9C8D20E030E04AEF54E45D
:1014D0000E941F02DC01CB018D8B9E8BAF8BB88FDE
:1014E0006D897E898F89988D20E030E040E85FE348
:1014F0000E94790388232CF481E090E09C8B8B8BF5
:101500003FC06D897E898F89988D20E03FEF4FE73E
:1015100057E40E94190318164CF5698D7A8D8B8D4E
:101520009C8D20E030E040E251E40E941F02DC018B
:10153000CB01BC01CD010E944900DC01CB019C8B99
:101540008B8B0FC088EC90E09A8B898B89899A8964
:101550000197F1F79A8B898B8B899C8901979C8BDA
:101560008B8B8B899C89009769F714C06D897E8964
:101570008F89988D0E944900DC01CB019C8B8B8B5D
:101580008B899C89988B8F878F8598890197F1F734
:10159000988B8F870E94611A80934E0180914E0133
:1015A000833109F0AFC080914F01815080934F018A
:1015B0000E943E1686EE90E00E94A41525EF30E0D2
:1015C00081E060E0A9010E94021680914F01882FFE
:1015D00090E00E941B1680E090E0AAEFB4E48B87B5
:1015E0009C87AD87BE876B857C858D859E8520E039
:1015F00030E04AEF54E40E941F02DC01CB018F83EC
:101600009887A987BA876F81788589859A8520E030
:1016100030E040E85FE30E94790388232CF481E006
:1016200090E09E838D833FC06F81788589859A8500
:1016300020E03FEF4FE757E40E94190318164CF5DE
:101640006B857C858D859E8520E030E040E251E40D
:101650000E941F02DC01CB01BC01CD010E944900A8
:10166000DC01CB019E838D830FC088EC90E09C83CE
:101670008B838B819C810197F1F79C838B838D8178
:101680009E8101979E838D838D819E81009769F74E
:1016900014C06F81788589859A850E944900DC0194
:1016A000CB019E838D838D819E819A8389838981DD
:1016B0009A810197F1F79A83898381E10E944A1AFE
:1016C00080914F018823E1F50E943E1685E091E06C
:1016D0000E94A415ED8DFE8D82EE94EE938382839D
:1016E0008D8D9E8D0E94AD1721E03CE081E0B90117
:1016F0000E94DB1883E080934F010E94611A8031C1
:10170000E1F723C00E943E1683E191E00E94A415F8
:1017100081E10E944A1A0E94611A8631E1F72EEA9D
:101720003BE081E0B9010E94DB188D8D9E8D0E9407
:10173000AD17809152018823E1F381E0809352013B
:1017400080914E01833109F4B1CE6E960FB6F894B4
:10175000DEBF0FBECDBFCF91DF910895DF93CF9352
:10176000CDB7DEB7809150018F5F8093500180919B
:101770005001823099F481E06EE87BE50E948C197B
:1017800085E10E944A1A0E94611A8031E1F70E94A5
:101790003E168EE191E00E94A41530C08091500168
:1017A000833099F481E062EE74EE0E948C1988E136
:1017B0000E944A1A0E94611A8031E1F70E943E1687
:1017C0008AE291E00E94A41519C0809150018530F1
:1017D000A9F485E10E944A1A0E94611A8031E1F75A
:1017E0001092500181E00E9407190E943E168AE380
:1017F00091E00E94A41581E080935201CF91DF9186
:101800000895DF93CF93CDB7DEB7809151018F5FFD
:101810008093510180915101883019F489E10E942F
:101820004A1ACF91DF910895DF93CF93CDB7DEB7FA
:101830006E970FB6F894DEBF0FBECDBF9E8F8D8F13
:1018400081E10E944A1A83E180934E012EC10E94D9
:10185000240980E090E0A6E9B3E4898F9A8FAB8FEA
:10186000BC8F698D7A8D8B8D9C8D20E030E04AEFA6
:1018700054E40E941F02DC01CB018D8B9E8BAF8B49
:10188000B88F6D897E898F89988D20E030E040E89F
:101890005FE30E94790388232CF481E090E09C8B25
:1018A0008B8B3FC06D897E898F89988D20E03FEFBB
:1018B0004FE757E40E94190318164CF5698D7A8D8D
:1018C0008B8D9C8D20E030E040E251E40E941F02AD
:1018D000DC01CB01BC01CD010E944900DC01CB0140
:1018E0009C8B8B8B0FC088EC90E09A8B898B8989BD
:1018F0009A890197F1F79A8B898B8B899C8901973B
:101900009C8B8B8B8B899C89009769F714C06D89A0
:101910007E898F89988D0E944900DC01CB019C8BC8
:101920008B8B8B899C89988B8F878F859889019762
:10193000F1F7988B8F870E94611A80934E018091F6
:101940004E01833109F0AFC080914F0181508093E7
:101950004F010E943E1686EE90E00E94A41525EFEE
:1019600030E081E060E0A9010E94021680914F0101
:10197000882F90E00E941B1680E090E0AAEFB4E46C
:101980008B879C87AD87BE876B857C858D859E8583
:1019900020E030E04AEF54E40E941F02DC01CB015A
:1019A0008F839887A987BA876F81788589859A857B
:1019B00020E030E040E85FE30E94790388232CF4C4
:1019C00081E090E09E838D833FC06F81788589851B
:1019D0009A8520E03FEF4FE757E40E94190318165D
:1019E0004CF56B857C858D859E8520E030E040E25E
:1019F00051E40E941F02DC01CB01BC01CD010E9419
:101A00004900DC01CB019E838D830FC088EC90E000
:101A10009C838B838B819C810197F1F79C838B83C3
:101A20008D819E8101979E838D838D819E810097FC
:101A300069F714C06F81788589859A850E9449006D
:101A4000DC01CB019E838D838D819E819A83898366
:101A500089819A810197F1F79A83898381E10E94B4
:101A60004A1A80914F01882301F50E943E1685E0B5
:101A700091E00E94A415ED8DFE8D82EE94EE93838D
:101A800082838D8D9E8D0E94AD1721E03CE081E028
:101A9000B9010E94DB1883E080934F010E94611A14
:101AA0008031E1F707C00E94050680914E01833125
:101AB00009F4CDCE6E960FB6F894DEBF0FBECDBF43
:101AC000CF91DF910895DF93CF9300D000D00F9294
:101AD000CDB7DEB789836A834B838A81883008F06B
:101AE000D5C08981843008F0D1C08981282F30E0A9
:101AF0003D832C838C819D818130910509F443C005
:101B00002C813D81223031052CF48C819D81009700
:101B100071F0BCC02C813D812230310509F45FC0D9
:101B20008C819D818330910509F485C0AFC08B8184
:101B30008130A1F4AAE3B0E0EAE3F0E08081482F2D
:101B40008A81282F30E081E090E0022E02C0880FC9
:101B5000991F0A94E2F7842B8C9398C0AAE3B0E013
:101B6000EAE3F0E08081482F8A81282F30E081E08D
:101B700090E0022E02C0880F991F0A94E2F7809528
:101B800084238C9383C08B818130A1F4A7E3B0E0E0
:101B9000E7E3F0E08081482F8A81282F30E081E060
:101BA00090E0022E02C0880F991F0A94E2F7842B5E
:101BB0008C936CC0A7E3B0E0E7E3F0E08081482FAE
:101BC0008A81282F30E081E090E0022E02C0880F49
:101BD000991F0A94E2F7809584238C9357C08B81D8
:101BE0008130A1F4A4E3B0E0E4E3F0E08081482F89
:101BF0008A81282F30E081E090E0022E02C0880F19
:101C0000991F0A94E2F7842B8C9340C0A4E3B0E0C0
:101C1000E4E3F0E08081482F8A81282F30E081E0E2
:101C200090E0022E02C0880F991F0A94E2F7809577
:101C300084238C932BC08B818130A1F4A1E3B0E08D
:101C4000E1E3F0E08081482F8A81282F30E081E0B5
:101C500090E0022E02C0880F991F0A94E2F7842BAD
:101C60008C9314C0A1E3B0E0E1E3F0E08081482F61
:101C70008A81282F30E081E090E0022E02C0880F98
:101C8000991F0A94E2F7809584238C930F900F900C
:101C90000F900F900F90CF91DF910895DF93CF9326
:101CA00000D000D00F92CDB7DEB789836A834B8313
:101CB0008A81883008F0D5C08981843008F0D1C08D
:101CC0008981282F30E03D832C838C819D81813058
:101CD000910509F443C02C813D81223031052CF45B
:101CE0008C819D81009771F0BCC02C813D81223098
:101CF000310509F45FC08C819D818330910509F421
:101D000085C0AFC08B818130A1F4ABE3B0E0EBE3E1
:101D1000F0E08081482F8A81282F30E081E090E038
:101D2000022E02C0880F991F0A94E2F7842B8C932D
:101D300098C0ABE3B0E0EBE3F0E08081482F8A810C
:101D4000282F30E081E090E0022E02C0880F991F1A
:101D50000A94E2F7809584238C9383C08B81813031
:101D6000A1F4A8E3B0E0E8E3F0E08081482F8A81A5
:101D7000282F30E081E090E0022E02C0880F991FEA
:101D80000A94E2F7842B8C936CC0A8E3B0E0E8E3FC
:101D9000F0E08081482F8A81282F30E081E090E0B8
:101DA000022E02C0880F991F0A94E2F780958423BF
:101DB0008C9357C08B818130A1F4A5E3B0E0E5E3BB
:101DC000F0E08081482F8A81282F30E081E090E088
:101DD000022E02C0880F991F0A94E2F7842B8C937D
:101DE00040C0A5E3B0E0E5E3F0E08081482F8A81C0
:101DF000282F30E081E090E0022E02C0880F991F6A
:101E00000A94E2F7809584238C932BC08B818130D8
:101E1000A1F4A2E3B0E0E2E3F0E08081482F8A8100
:101E2000282F30E081E090E0022E02C0880F991F39
:101E30000A94E2F7842B8C9314C0A2E3B0E0E2E3AF
:101E4000F0E08081482F8A81282F30E081E090E007
:101E5000022E02C0880F991F0A94E2F7809584230E
:101E60008C930F900F900F900F900F90CF91DF9168
:101E70000895DF93CF9300D000D00F92CDB7DEB797
:101E80008A836B8319828B81883008F084C08A81B1
:101E9000843008F080C08A81282F30E03D832C8375
:101EA0004C815D814130510579F18C819D81823079
:101EB000910534F42C813D812115310569F06BC009
:101EC0004C815D8142305105B9F18C819D81833017
:101ED000910509F449C05FC0E9E3F0E08081282F53
:101EE00030E08B81882F90E0A90102C0559547957D
:101EF0008A95E2F7CA0181709070882319F081E019
:101F0000898349C0198247C0E6E3F0E08081282F29
:101F100030E08B81882F90E0A90102C0559547954C
:101F20008A95E2F7CA0181709070882319F081E0E8
:101F3000898331C019822FC0E3E3F0E08081282F2C
:101F400030E08B81882F90E0A90102C0559547951C
:101F50008A95E2F7CA0181709070882319F081E0B8
:101F6000898319C0198217C0E0E3F0E08081282F2F
:101F700030E08B81882F90E0A90102C055954795EC
:101F80008A95E2F7CA0181709070882319F081E088
:101F9000898301C0198289810F900F900F900F9053
:101FA0000F90CF91DF910895DF93CF9300D000D0B1
:101FB000CDB7DEB789836A838981843090F58981C2
:101FC000282F30E03C832B838B819C8181309105CD
:101FD000D1F02B813C81223031052CF48B819C8106
:101FE000009761F01EC02B813C812230310581F0C9
:101FF0008B819C818330910581F013C0EAE3F0E08E
:102000008A8180830EC0E7E3F0E08A81808309C083
:10201000E4E3F0E08A81808304C0E1E3F0E08A81B8
:1020200080830F900F900F900F90CF91DF910895C4
:10203000DF93CF9300D000D0CDB7DEB789836A831A
:102040008981843090F58981282F30E03C832B836F
:102050008B819C8181309105D1F02B813C81223094
:1020600031052CF48B819C81009761F01EC02B817F
:102070003C812230310581F08B819C818330910538
:1020800081F013C0EBE3F0E08A8180830EC0E8E3C7
:10209000F0E08A81808309C0E5E3F0E08A818083F3
:1020A00004C0E2E3F0E08A8180830F900F900F90EC
:1020B0000F90CF91DF910895DF93CF9300D000D0A0
:1020C000CDB7DEB78A8319828A81843090F58A8100
:1020D000282F30E03C832B838B819C8181309105BC
:1020E000D1F02B813C81223031052CF48B819C81F5
:1020F000009761F01EC02B813C812230310581F0B8
:102100008B819C818330910581F013C0E9E3F0E07D
:10211000808189830EC0E6E3F0E08081898309C075
:10212000E3E3F0E08081898304C0E0E3F0E08081B4
:10213000898389810F900F900F900F90CF91DF913D
:102140000895DF93CF9300D00F92CDB7DEB71982F9
:102150001B8243C080E060E00E94D40F8B81982FE7
:102160009C5F80E0692F41E00E94630D8B81882F86
:1021700090E09C012C5F3F4F81E090E002C0880F0F
:10218000991F2A95E2F78095898380E069810E94F2
:1021900018101A821CC080E06A810E94390F8823BF
:1021A00099F48A81882F90E0880F991F880F991FD2
:1021B000982F8B81890F8F5F0E94F2100F900F90E4
:1021C0000F90CF91DF9108958A818F5F8A838A81F2
:1021D000843008F38B818F5F8B838B81843008F48C
:1021E000B9CFB6CFDF93CF9300D000D0CDB7DEB755
:1021F0008A8319828A81282F30E03C832B838B814C
:102200009C818830910509F470C02B813C81293074
:1022100031055CF58B819C818430910509F459C0AE
:102220002B813C81253031059CF48B819C8182304F
:10223000910509F448C02B813C81233031050CF015
:1022400045C08B819C818130910509F439C067C0FC
:102250002B813C812630310509F441C08B819C8162
:10226000873091050CF03EC037C02B813C812C306B
:10227000310509F446C08B819C818D3091055CF459
:102280002B813C812A303105B1F18B819C818B30CF
:102290009105A4F52DC02B813C812E303105B9F17B
:1022A0008B819C818E3091057CF12B813C812F307C
:1022B000310579F18B819C818031910569F12FC0C5
:1022C00087E089832EC088E089832BC089E08983D9
:1022D00028C085E2898325C084E0898322C085E007
:1022E00089831FC086E089831CC08AE2898319C064
:1022F00081E0898316C082E0898313C083E08983EB
:1023000010C08DE289830DC08DE089830AC01982D7
:1023100008C08DE3898305C08BE2898302C08A816E
:10232000898389810F900F900F900F90CF91DF914B
:102330000895DF93CF93CDB7DEB782E065E041E04B
:102340000E94630D82E066E041E00E94630D82E03E
:1023500067E041E00E94630D81E06FEF0E94D40FBF
:1023600088E30E94BC118CE00E94BC1181E00E94B5
:10237000BC11CF91DF910895DF93CF93CDB7DEB736
:10238000E9970FB6F894DEBF0FBECDBF89AF82E0EC
:1023900065E040E00E944E0E82E066E040E00E9470
:1023A0004E0E80E090E0A0E8BFE38DAB9EABAFABFC
:1023B000B8AF6DA97EA98FA998AD20E030E04AEFB3
:1023C00054E40E941F02DC01CB0189AB9AABABAB9A
:1023D000BCAB69A97AA98BA99CA920E030E040E8B0
:1023E0005FE30E94790388232CF481E090E098ABAE
:1023F0008FA73FC069A97AA98BA99CA920E03FEFCC
:102400004FE757E40E94190318164CF56DA97EA9F1
:102410008FA998AD20E030E040E251E40E941F0215
:10242000DC01CB01BC01CD010E944900DC01CB01E4
:1024300098AB8FA70FC088EC90E09EA78DA78DA5C5
:102440009EA50197F1F79EA78DA78FA598A9019743
:1024500098AB8FA78FA598A9009769F714C069A9B1
:102460007AA98BA99CA90E944900DC01CB0198ABF9
:102470008FA78FA598A99CA78BA78BA59CA5019733
:10248000F1F79CA78BA782E067E041E00E944E0E27
:1024900080E090E0A0E8BFE38FA398A7A9A7BAA720
:1024A0006FA178A589A59AA520E030E04AEF54E411
:1024B0000E941F02DC01CB018BA39CA3ADA3BEA392
:1024C0006BA17CA18DA19EA120E030E040E85FE3FC
:1024D0000E94790388232CF481E090E09AA389A3D9
:1024E0003FC06BA17CA18DA19EA120E03FEF4FE7F3
:1024F00057E40E94190318164CF56FA178A589A519
:102500009AA520E030E040E251E40E941F02DC0185
:10251000CB01BC01CD010E944900DC01CB019AA393
:1025200089A30FC088EC90E098A38F8F8F8D98A11E
:102530000197F1F798A38F8F89A19AA101979AA388
:1025400089A389A19AA1009769F714C06BA17CA106
:102550008DA19EA10E944900DC01CB019AA389A311
:1025600089A19AA19E8F8D8F8D8D9E8D0197F1F7F8
:102570009E8F8D8F81E069AD0E94181080E090E001
:10258000A0E8BFE3898F9A8FAB8FBC8F698D7A8D5E
:102590008B8D9C8D20E030E04AEF54E40E941F02B6
:1025A000DC01CB018D8B9E8BAF8BB88F6D897E89C3
:1025B0008F89988D20E030E040E85FE30E94790346
:1025C00088232CF481E090E09C8B8B8B3FC06D893D
:1025D0007E898F89988D20E03FEF4FE757E40E9476
:1025E000190318164CF5698D7A8D8B8D9C8D20E022
:1025F00030E040E251E40E941F02DC01CB01BC014B
:10260000CD010E944900DC01CB019C8B8B8B0FC05C
:1026100088EC90E09A8B898B89899A890197F1F7E8
:102620009A8B898B8B899C8901979C8B8B8B8B894F
:102630009C89009769F714C06D897E898F89988D70
:102640000E944900DC01CB019C8B8B8B8B899C8980
:10265000988B8F878F8598890197F1F7988B8F8753
:1026600082E067E040E00E944E0E80E090E0A0E84B
:10267000BFE38B879C87AD87BE876B857C858D8507
:102680009E8520E030E04AEF54E40E941F02DC0106
:10269000CB018F839887A987BA876F8178858985D1
:1026A0009A8520E030E040E85FE30E9479038823C8
:1026B0002CF481E090E09E838D833FC06F8178850C
:1026C00089859A8520E03FEF4FE757E40E94190380
:1026D00018164CF56B857C858D859E8520E030E055
:1026E00040E251E40E941F02DC01CB01BC01CD019C
:1026F0000E944900DC01CB019E838D830FC088ECD2
:1027000090E09C838B838B819C810197F1F79C8364
:102710008B838D819E8101979E838D838D819E8188
:10272000009769F714C06F81788589859A850E9422
:102730004900DC01CB019E838D838D819E819A832C
:10274000898389819A810197F1F79A838983E99630
:102750000FB6F894DEBF0FBECDBFCF91DF910895C5
:10276000DF93CF93CDB7DEB7E9970FB6F894DEBF0E
:102770000FBECDBF89AF82E065E041E00E944E0E02
:1027800082E066E040E00E944E0E80E090E0A0E82B
:10279000BFE38DAB9EABAFABB8AF6DA97EA98FA9E0
:1027A00098AD20E030E04AEF54E40E941F02DC01C3
:1027B000CB0189AB9AABABABBCAB69A97AA98BA9AE
:1027C0009CA920E030E040E85FE30E947903882381
:1027D0002CF481E090E098AB8FA73FC069A97AA95B
:1027E0008BA99CA920E03FEF4FE757E40E94190313
:1027F00018164CF56DA97EA98FA998AD20E030E0A0
:1028000040E251E40E941F02DC01CB01BC01CD017A
:102810000E944900DC01CB0198AB8FA70FC088EC68
:1028200090E09EA78DA78DA59EA50197F1F79EA785
:102830008DA78FA598A9019798AB8FA78FA598A969
:10284000009769F714C069A97AA98BA99CA90E946D
:102850004900DC01CB0198AB8FA78FA598A99CA755
:102860008BA78BA59CA50197F1F79CA78BA782E06E
:1028700067E041E00E944E0E80E090E0A0E8BFE3F8
:102880008FA398A7A9A7BAA76FA178A589A59AA58C
:1028900020E030E04AEF54E40E941F02DC01CB014B
:1028A0008BA39CA3ADA3BEA36BA17CA18DA19EA174
:1028B00020E030E040E85FE30E94790388232CF4B5
:1028C00081E090E09AA389A33FC06BA17CA18DA178
:1028D0009EA120E03FEF4FE757E40E94190318162E
:1028E0004CF56FA178A589A59AA520E030E040E2DB
:1028F00051E40E941F02DC01CB01BC01CD010E940A
:102900004900DC01CB019AA389A30FC088EC90E0B9
:1029100098A38F8F8F8D98A10197F1F798A38F8F30
:1029200089A19AA101979AA389A389A19AA1009745
:1029300069F714C06BA17CA18DA19EA10E944900E2
:10294000DC01CB019AA389A389A19AA19E8F8D8FC7
:102950008D8D9E8D0197F1F79E8F8D8F81E069ADF2
:102960000E94181080E090E0A0E8BFE3898F9A8F62
:10297000AB8FBC8F698D7A8D8B8D9C8D20E030E084
:102980004AEF54E40E941F02DC01CB018D8B9E8B29
:10299000AF8BB88F6D897E898F89988D20E030E06C
:1029A00040E85FE30E94790388232CF481E090E003
:1029B0009C8B8B8B3FC06D897E898F89988D20E0A1
:1029C0003FEF4FE757E40E94190318164CF5698D45
:1029D0007A8D8B8D9C8D20E030E040E251E40E94A6
:1029E0001F02DC01CB01BC01CD010E944900DC01CA
:1029F000CB019C8B8B8B0FC088EC90E09A8B898BE2
:102A000089899A890197F1F79A8B898B8B899C899F
:102A100001979C8B8B8B8B899C89009769F714C0DD
:102A20006D897E898F89988D0E944900DC01CB01D8
:102A30009C8B8B8B8B899C89988B8F878F859889B2
:102A40000197F1F7988B8F8782E067E040E00E9462
:102A50004E0E80E090E0A0E8BFE38B879C87AD87B7
:102A6000BE876B857C858D859E8520E030E04AEFB2
:102A700054E40E941F02DC01CB018F839887A98751
:102A8000BA876F81788589859A8520E030E040E8B3
:102A90005FE30E94790388232CF481E090E09E8319
:102AA0008D833FC06F81788589859A8520E03FEFCF
:102AB0004FE757E40E94190318164CF56B857C8587
:102AC0008D859E8520E030E040E251E40E941F02A7
:102AD000DC01CB01BC01CD010E944900DC01CB012E
:102AE0009E838D830FC088EC90E09C838B838B81C9
:102AF0009C810197F1F79C838B838D819E81019747
:102B00009E838D838D819E81009769F714C06F81AC
:102B1000788589859A850E944900DC01CB019E83D6
:102B20008D838D819E819A83898389819A81019782
:102B3000F1F79A838983E9960FB6F894DEBF0FBE4A
:102B4000CDBFCF91DF910895DF93CF9300D0CDB764
:102B5000DEB79A8389830AC0E981FA8180810E9465
:102B6000B01389819A8101969A838983E981FA81D8
:102B70008081882389F70F900F90CF91DF9108957E
:102B8000DF93CF9300D000D00F92CDB7DEB78A830A
:102B90006B838A81282F30E03D832C838C819D813B
:102BA00081309105C1F02C813D81223031052CF41A
:102BB0008C819D81009761F019C02C813D8122306C
:102BC000310569F08C819D818330910561F00EC0E3
:102BD0008B8189830BC08B81805C898307C08B814B
:102BE000805F898303C08B81805B89838981806852
:102BF0000E94BC110F900F900F900F900F90CF91EB
:102C0000DF910895DF93CF9300D000D0CDB7DEB72A
:102C100089836A835C834B8389816A810E94C015A2
:102C20008B819C810E94A4150F900F900F900F90A4
:102C3000CF91DF910895DF93CF93CDB7DEB7629741
:102C40000FB6F894DEBF0FBECDBF9A8B898B8989F2
:102C50009A899E012F5F3F4FB9014AE050E00E94E0
:102C6000351BCE0101960E94A41562960FB6F8940A
:102C7000DEBF0FBECDBFCF91DF910895DF93CF931D
:102C8000CDB7DEB781E00E94BC11CF91DF910895EE
:102C90001F920F920FB60F9211242F933F934F93D1
:102CA0005F936F937F938F939F93AF93BF93EF93B4
:102CB000FF93DF93CF93CDB7DEB78091540190910E
:102CC0005501009729F0E0915401F09155010995C3
:102CD000CF91DF91FF91EF91BF91AF919F918F9134
:102CE0007F916F915F914F913F912F910F900FBE08
:102CF0000F901F9018951F920F920FB60F921124EC
:102D00002F933F934F935F936F937F938F939F93F3
:102D1000AF93BF93EF93FF93DF93CF93CDB7DEB71E
:102D20008091540190915501009729F0E091540150
:102D3000F09155010995CF91DF91FF91EF91BF91EE
:102D4000AF919F918F917F916F915F914F913F9143
:102D50002F910F900FBE0F901F9018951F920F92FA
:102D60000FB60F9211242F933F934F935F936F935E
:102D70007F938F939F93AF93BF93EF93FF93DF93D3
:102D8000CF93CDB7DEB78091560190915701009750
:102D900029F0E0915601F09157010995CF91DF910B
:102DA000FF91EF91BF91AF919F918F917F916F9123
:102DB0005F914F913F912F910F900FBE0F901F90F9
:102DC00018951F920F920FB60F9211242F933F93D5
:102DD0004F935F936F937F938F939F93AF93BF9323
:102DE000EF93FF93DF93CF93CDB7DEB7809156017A
:102DF00090915701009729F0E0915601F091570109
:102E00000995CF91DF91FF91EF91BF91AF919F9184
:102E10008F917F916F915F914F913F912F910F9083
:102E20000FBE0F901F9018951F920F920FB60F9222
:102E300011242F933F934F935F936F937F938F93BF
:102E40009F93AF93BF93EF93FF93DF93CF93CDB750
:102E5000DEB78091560190915701009729F0E091DB
:102E60005601F09157010995CF91DF91FF91EF91B4
:102E7000BF91AF919F918F917F916F915F914F9192
:102E80003F912F910F900FBE0F901F9018951F929A
:102E90000F920FB60F9211242F933F934F935F938E
:102EA0006F937F938F939F93AF93BF93EF93FF9312
:102EB000DF93CF93CDB7DEB7809158019091590140
:102EC000009729F0E0915801F09159010995CF91AF
:102ED000DF91FF91EF91BF91AF919F918F917F9182
:102EE0006F915F914F913F912F910F900FBE0F9077
:102EF0001F9018951F920F920FB60F9211242F93C7
:102F00003F934F935F936F937F938F939F93AF9371
:102F1000BF93EF93FF93DF93CF93CDB7DEB780914D
:102F2000580190915901009729F0E0915801F091D2
:102F300059010995CF91DF91FF91EF91BF91AF9129
:102F40009F918F917F916F915F914F913F912F91C1
:102F50000F900FBE0F901F901895DF93CF9300D066
:102F600000D0CDB7DEB79A838983E981FA81848165
:102F7000282F30E03C832B838B819C81813091050D
:102F800009F460C02B813C812230310509F4B9C0BD
:102F90008B819C81009709F007C1E3E5F0E080E8B0
:102FA0008083A2E5B0E0E981FA81808191818C93F0
:102FB000A3E5B0E0E3E5F0E08081982F987FE98118
:102FC000FA818681892B8C93E981FA81858182300F
:102FD00059F5A3E5B0E0E3E5F0E08081877B886008
:102FE0008C93A3E5B0E0E3E5F0E08081282F2F7C0F
:102FF000E981FA818781882F90E082959295907F70
:103000009827807F9827822B8C93ACE5B0E0E981EC
:10301000FA81828193818C93A9E5B0E0E9E5F0E043
:10302000808182608C93C0C0E981FA818581882388
:1030300009F0BAC0A9E5B0E0E9E5F0E0808181607F
:103040008C93B2C0AFE4B0E0EFE4F0E080818C603C
:103050008C93ACE4B0E0E981FA8180819181119692
:103060009C938E93AEE4B0E0EEE4F0E08081982F84
:10307000987FE981FA818681892B8C93E981FA8195
:103080008581823081F5AEE4B0E0EEE4F0E080814D
:10309000877E88608C93AFE4B0E0EFE4F0E080815D
:1030A000282F2F73E981FA818781882F90E00024EF
:1030B000969587950794969587950794982F802DD8
:1030C000822B8C93AAE4B0E0E981FA81828193811A
:1030D00011969C938E93A9E5B0E0E9E5F0E080813C
:1030E00080618C9361C0E981FA818581882309F030
:1030F0005BC0A9E5B0E0E9E5F0E0808184608C93F5
:1031000053C0E5E4F0E080E88083A4E4B0E0E98126
:10311000FA81808191818C93A5E4B0E0E5E4F0E050
:103120008081982F987FE981FA818681892B8C9301
:10313000E981FA818581823059F5A5E4B0E0E5E4C2
:10314000F0E08081877B88608C93A5E4B0E0E5E4C3
:10315000F0E08081282F2F7CE981FA818781882FF8
:1031600090E082959295907F9827807F9827822B78
:103170008C93A3E4B0E0E981FA81828193818C93FE
:10318000A9E5B0E0E9E5F0E0808180688C930CC0AF
:10319000E981FA818581882339F4A9E5B0E0E9E580
:1031A000F0E0808180648C930F900F900F900F90CF
:1031B000CF91DF910895DF93CF9300D00F92CDB7D9
:1031C000DEB789837B836A838981882339F48A8186
:1031D0009B81909355018093540113C08981813064
:1031E00039F48A819B81909357018093560109C0DD
:1031F0008981823031F48A819B8190935901809337
:1032000058010F900F900F90CF91DF910895DF93A9
:10321000CF930F92CDB7DEB7898389818823B1F42C
:10322000E3E5F0E01082ECE4F0E011821082A9E521
:10323000B0E0E9E5F0E080818E7F8C93A9E5B0E015
:10324000E9E5F0E080818D7F8C933AC089818130FF
:1032500001F5EFE4F0E01082EEE4F0E01082ECE43F
:10326000F0E011821082A9E5B0E0E9E5F0E08081AC
:103270008B7F8C93A9E5B0E0E9E5F0E080818F7E5B
:103280008C93A9E5B0E0E9E5F0E08081877F8C933D
:1032900017C089818230A1F4E5E4F0E01082E4E413
:1032A000F0E01082A9E5B0E0E9E5F0E080818F7BF5
:1032B0008C93A9E5B0E0E9E5F0E080818F778C930D
:1032C0000F90CF91DF910895DF93CF9300D00F92AD
:1032D000CDB7DEB789837B836A838981882329F40C
:1032E000E2E5F0E08A81808311C08981813039F480
:1032F000ECE4F0E08A819B819183808307C089811F
:10330000823021F4E4E4F0E08A8180830F900F9012
:103310000F90CF91DF910895DF93CF9300D00F925C
:10332000CDB7DEB789837B836A838981882329F4BB
:10333000ECE5F0E08A81808311C08981813039F425
:10334000EAE4F0E08A819B819183808307C08981D0
:10335000823021F4E3E4F0E08A8180830F900F90C3
:103360000F90CF91DF910895DF93CF9300D000D0DD
:10337000CDB7DEB79C838B83ABE2B0E0EBE2F0E04D
:10338000808182608C93AAE2B0E0EAE2F0E0808182
:1033900080618C93AAE2B0E0EAE2F0E0808188608C
:1033A0008C93A0E4B0E0E0E4F0E0808180688C934E
:1033B000A0E4B0E0E0E4F0E08081282F2F7CEB81F6
:1033C000FC818581882F90E082959295907F982747
:1033D000807F9827822B8C93A0E4B0E0E0E4F0E0BB
:1033E0008081282F277FEB81FC818681882F90E0C8
:1033F000880F991F880F991F880F991F822B8C9314
:10340000A0E4B0E0E0E4F0E08081282F297FEB81A8
:10341000FC818481882F90E0880F991F822B8C93E8
:10342000A0E4B0E0E0E4F0E080818F778C93EB8162
:10343000FC8180819181A281B381880F991FAA1F8D
:10344000BB1F880F991FAA1FBB1F880F991FAA1F98
:10345000BB1F9C01AD0180E092E1AAE7B0E0BC0196
:10346000CD010E94DC1ADA01C90101979A83898390
:10347000E0E4F0E089819A81892F99278083E9E24D
:10348000F0E0898180830F900F900F900F90CF9183
:10349000DF910895DF93CF930F92CDB7DEB7898385
:1034A000EBE2F0E08081882F90E0807290700097CE
:1034B000B9F3ECE2F0E0898180830F90CF91DF9146
:1034C0000895DF93CF93CDB7DEB7EBE2F0E08081D4
:1034D0008823DCF7ECE2F0E08081CF91DF91089562
:1034E000DF93CF9300D00F92CDB7DEB79B838A8353
:1034F00019820EC08981282F30E08A819B81FC01CE
:10350000E20FF31F80810E944A1A89818F5F8983AD
:103510008981282F30E08A819B81FC01E20FF31F13
:103520008081882339F70F900F900F90CF91DF9112
:1035300008950F931F93DF93CF9300D00F92CDB7D1
:10354000DEB79B838A8319828981282F30E08A81A4
:103550009B818C01020F131F0E94611AF801808366
:103560000FC089818F5F89838981282F30E08A810C
:103570009B818C01020F131F0E94611AF801808346
:103580008981282F30E08A819B81FC01E20FF31FA3
:103590008081833231F78981282F30E08A819B81B5
:1035A000FC01E20FF31F10820F900F900F90CF914C
:1035B000DF911F910F910895A1E21A2EAA1BBB1B48
:1035C000FD010DC0AA1FBB1FEE1FFF1FA217B307EF
:1035D000E407F50720F0A21BB30BE40BF50B661F05
:1035E000771F881F991F1A9469F7609570958095C9
:1035F00090959B01AC01BD01CF0108952F923F92A0
:103600004F925F926F927F928F929F92AF92BF92F2
:10361000CF92DF92EF92FF920F931F93CF93DF939E
:10362000CDB7DEB7CA1BDB0B0FB6F894DEBF0FBEFB
:10363000CDBF09942A88398848885F846E847D8448
:103640008C849B84AA84B984C884DF80EE80FD804A
:103650000C811B81AA81B981CE0FD11D0FB6F894C0
:10366000DEBF0FBECDBFED010895FB019F01E894C1
:103670004230C4F04532B4F44A3029F497FB1EF4CA
:10368000909581959F4F642F77270E94661B805DE0
:103690008A330CF0895D8193CB010097A1F716F472
:1036A0005DE251931082C9010C94561BDC01FC01B0
:1036B000672F71917723E1F7329704C07C916D9366
:1036C00070836291AE17BF07C8F30895AA1BBB1B96
:1036D00051E107C0AA1FBB1FA617B70710F0A61B12
:1036E000B70B881F991F5A95A9F780959095BC0133
:0836F000CD010895F894FFCF0D
:1036F800456E746572204E657720506173733A2069
:1037080020002020202020202020202020202020D1
:1037180020200052652D656E7465722050617373A8
:103728003A20200057524F4E472050415353210012
:10373800434F5252454354205041535300536176EE
:10374800696E672050617373002B203A20436861CB
:103758006E6765205041535320002D203A204F704A
:10376800656E20446F6F7220202000456E7465726C
:1037780020504153530057726F6E67205061737326
:10378800776F726400547269616C732052656D6161
:10379800696E3A2000416C657274205468696566E8
:1037A8002121004F50454E494E472E2E2E00446F82
:1037B8006F72204F70656E656400436C6F73696E3D
:1037C8006720446F6F722E2E2E00446F6F72204355
:1037D8006C6F7365640000000000000000001303B4
:00000001FF
